:020000040800F2
:1000000010E8002069010008D91C0008251B000821
:10001000D51C0008EF060008D529000800000000E4
:10002000000000000000000000000000E5220008C1
:100030007B0B000800000000691F0008292500084C
:100040007F0100087F0100087F0100087F01000890
:100050007F0100087F0100087F0100087F01000880
:100060007F0100087F0100087F0100087F01000870
:100070007F0100087F0100087F0100087F01000860
:100080007F0100087F0100087F0100087F01000850
:100090007F0100087F0100087F0100087F01000840
:1000A0007F0100087F0100087F0100087F01000830
:1000B000092600087F0100087F0100087F01000871
:1000C0007F0100087F0100087F0100087F01000810
:1000D0007F0100087F0100087F0100087F01000800
:1000E0007F0100087F0100087F0100080000000078
:1000F0000000000000000000000000000000000000
:1001000000000000000000007F0100087F010008DF
:100110007F0100087F0100087F0100087F010008BF
:100120007F0100087F0100087F0100087F010008AF
:100130007F010008BD0D00087F0100087F01000855
:100140007F0100087F0100087F0100087F0100088F
:10015000DFF80CD000F06AFA004800476978000820
:1001600010E800207047000005480047FEE7FEE762
:10017000FEE7FEE7FEE7FEE7FEE7FEE7FEE7FEE757
:100180005101000840EA01039B070AD102E008C9B7
:10019000121F08C0042AFAD203E011F8013B00F84C
:1001A000013B521EF9D27047D2B201E000F8012B98
:1001B000491EFBD270470022F6E710B504460846F8
:1001C000114602462046FFF7EFFF204610BD30B52E
:1001D0000EE003460A4601E05B1C521C1C781578B1
:1001E000AC4201D1002CF7D11278002A04D0401C77
:1001F0000278002AEDD1002030BDCAB201789142C8
:1002000001D009B900207047401CF7E701460020E3
:1002100000E0401C0A5C002AFBD1704710B50022A8
:1002200000E0521C835C8C5CA34201D1002BF8D10E
:10023000805C895C401A10BD30B50446002003463E
:1002400000E05B1C934203D2E05CCD5C401BF8D025
:1002500030BD034611F8012B00F8012B002AF9D11B
:100260001846704730B500252B4600E05B1C9342D2
:1002700005D2C45CCD5C651B01D1002CF6D12846AB
:1002800030BD2DE9F04780460F46914604460026D2
:1002900014F8015B2DB100F003F90068405DC00760
:1002A000F6D12B2D05D02D2D02D146F4806600E02D
:1002B000641E4A463946204600F0F6F827B13968F0
:1002C000A14201D1C7F8008071054FF0020408D5A2
:1002D0004042002803DD02F0A3FB0460A007BDE854
:1002E000F0870028FBDA02F09BFB04606FF000400F
:1002F000F5E72DE9F04D834681EA030023F0004441
:1003000088B000F00040002321F00045079085EA06
:1003100003018BEA03009246084305D084EA0301F7
:100320008AEA0300084304D10020014608B0BDE872
:10033000F08DC4F30A50C5F31301C5F30A52131824
:10034000ABFB0A2541F48018C4F3130141F4801477
:10035000A3F2F33308FB0A5104930BFB04134FEA97
:100360009B204FEA9A2140EA885041EA8451A0FB41
:1003700001654FEA982707FB01514FEA942C00FBD7
:100380000C1739053005151A41EA163163EB0101E6
:1003900005914FEA9B604FEA9A6140EA881041EA72
:1003A0008411A0FB0140321E804667EB0403280D38
:1003B0000599C5F3130540EA0130861843EB115047
:1003C000001948F10001049B2A030C3B46EA15542E
:1003D0000293079D0023CDE90035234600F0C9F8BC
:1003E000A4E70EB5C20F80EAE07010440021D207E6
:1003F00040F233438DE80E000B460A4600F0B9F890
:1004000003B000BD70B501F0004621F000410A0DB7
:100410000025C1F3130140F2FF3341F480119A42E9
:1004200001DA002070BD40F233439A42A2F2334217
:1004300003DC524200F025F801E000FA02F000234C
:10044000044686EA030185EA0300084301D06042BE
:1004500070BD204670BD30B50B46014600202022FD
:10046000012409E021FA02F59D4205D303FA02F5C1
:10047000491B04FA02F52844151EA2F10102F1DC21
:1004800030BD202A04DB203A21FA02F00021704717
:10049000D040C2F1200301FA03F31843D140704762
:1004A00000487047105201082DE9F05F824604466B
:1004B00000780027641C8B461546B946302811D1B8
:1004C00014F8010B0127782801D0582807D10DB165
:1004D000102D09D10027102514F8010B04E01DB9D7
:1004E000082501E005B90A250026B0460EE005FB07
:1004F000080005FB06F1012701EB10461FFA80F802
:10050000B6F5803F00D3B94614F8010B294600F038
:10051000AFF80028EBDABBF1000F04D0641E07B976
:100520005446CBF80040B9F1000F06D002F078FA3B
:1005300002210160C81EBDE8F09F48EA0640FAE7C4
:10054000F0B51F46044600230D46D01A164677EB39
:1005500003010BDA641C45F10005B01947EB0701F4
:1005600059405840084301D124F00104204629464F
:10057000F0BD2DE9F04D92469B4611B1B1FA81F6DE
:1005800002E0B0FA80F62036324600F061F8044608
:100590000D46002340EA0A0041EA0B015940584049
:1005A000084303D120462946BDE8F08D00238BEA9D
:1005B00003018AEA0300084319D0C6F140025946F4
:1005C0005046FFF75EFF074688463246594650467A
:1005D00000F03EF8002359405840084300D0012065
:1005E0004FEAE071384348EA010104430D430A9899
:1005F0004FEA4457A0EB06034FEAD4200A334FF0EA
:10060000000640EA45504FEAD52102D500200146B8
:10061000CAE7001C41EB0351DDE90823801859416A
:100620003B463246BDE8F04D8AE70000064C074DD8
:1006300006E0E06840F0010394E8070098471034B2
:10064000AC42F6D3FFF788FD105301083053010880
:10065000202A04DB0023203A00FA02F106E000FA27
:1006600002F39140C2F12002D04001431846704786
:100670003A2800D2303820F02002412A01D3A2F1DA
:1006800037004FF0FF32884200D2024610467047D2
:1006900070B501EB020410F8015B15F0070301D1FE
:1006A00010F8013B2A1106D110F8012B03E010F8D5
:1006B000016B01F8016B5B1EF9D12B0706D40023F7
:1006C00001E001F8013B521EFBD50CE010F8013BA4
:1006D00002F10202A1EB030303E013F8015B01F84E
:1006E000015B521EF9D5A142D5D3002070BD00BFD9
:1006F000FEE7000070B5B5480078002850D14820CA
:1007000000F03CFA01F07AFA01F06CFB01281ED1EE
:1007100001F04EF9064608220146AD48FFF732FDCA
:10072000012411E001F078FB01280AD101F040F921
:100730000646A74901EBC40008223146FFF722FD17
:1007400000E003E0601C04B2022CEBDB00E070BDB3
:100750000920A049087054204870692088706D20D5
:10076000C870652008713A2048710920C872542069
:100770000873652048736D2088737020C8733A2011
:1007800008740920C8752E200875C8760920887756
:100790000D20C8770A2081F8200001208B490870BD
:1007A0008B4800F04DF904468948083000F048F9BC
:1007B00005468948006842F21071B0FBF1F0303014
:1007C000844988718448006842F21071B0FBF1F2EC
:1007D00001FB12004FF47A71B0FBF1F030307D492B
:1007E000C8717D48006842F21071B0FBF1F201FB64
:1007F00012004FF47A71B0FBF1F201FB1200642198
:10080000B0FBF1F03030734908727348006842F26F
:100810001071B0FBF1F201FB12004FF47A71B0FBE2
:10082000F1F201FB12006421B0FBF1F201FB1200B6
:100830000A21B0FBF1F03030664948726648006822
:1008400042F21071B0FBF1F201FB12004FF47A7129
:10085000B0FBF1F201FB12006421B0FBF1F201FBED
:1008600012000A21B0FBF1F201FB120030305949AD
:10087000887242F2107094FBF0F03030487442F20B
:10088000107094FBF0F100FB11404FF47A7190FB73
:10089000F1F030304F49887442F2107094FBF0F15F
:1008A00000FB11404FF47A7190FBF1F201FB120052
:1008B000642190FBF1F030304649C87442F2107068
:1008C00094FBF0F100FB11404FF47A7190FBF1F2D0
:1008D00001FB1200642190FBF1F201FB12000A21DE
:1008E00090FBF1F030303B49487542F2107094FBB8
:1008F000F0F100FB11404FF47A7190FBF1F201FB33
:100900001200642190FBF1F201FB12000A2190FB1E
:10091000F1F201FB120030302E49887542F210715D
:1009200095FBF1F030302B49087642F2107195FBBF
:10093000F1F201FB12504FF47A7190FBF1F030307C
:100940002449487642F2107195FBF1F201FB1250F6
:100950004FF47A7190FBF1F201FB1200642190FBDD
:10096000F1F030301B49887642F2107195FBF1F2BC
:1009700001FB12504FF47A7190FBF1F201FB12006F
:10098000642190FBF1F201FB12000A2190FBF1F0CF
:1009900030301049087742F2107195FBF1F201FBFB
:1009A00012504FF47A7190FBF1F201FB12006421B6
:1009B00090FBF1F201FB12000A2190FBF1F201FB26
:1009C0001200303003494877C1E60000D20C002005
:1009D00019220020F8210020C00C002010B50024AE
:1009E00001F0E8FC002001F0F7FF0C2000F0E0F837
:1009F000012001F0F1FF01F0C9FC0A2000F0D8F855
:100A00000121054800F0C6FF00B10124282000F0B4
:100A1000CFF8204610BD00000014014070B500253D
:100A200072B6002407E06D10FFF7D8FF08B145F05B
:100A30008005601CC4B2082CF5DB62B6284670BD88
:100A40002DE9FF41044600F03FF820B94FF0FF3098
:100A500004B0BDE8F081CC2000F080F8442000F024
:100A60007DF800F031F8552000F078F8002704E018
:100A7000E05D00F073F8781C07B2082FF8DB0A205D
:100A800000F096F8BE2000F069F8FFF7C7FF0546B2
:100A9000FFF7C4FF06463746380207B22F433846F1
:100AA000FFF79FFCCDE9020105A00CC80298FFF7F3
:100AB00020FCCDE90001FFF7A5FC07B23846C7E7E7
:100AC000000000000000194010B5002401F072FC85
:100AD000012001F081FF012000F06AF8002001F000
:100AE0007BFF4FF4FA7000F063F8012001F074FF0F
:100AF000022000F05DF801F049FC08E0601CC4B27F
:100B0000012000F055F8642C01DD002010BD01210A
:100B1000054800F03FFF0028F0D14FF4CD7000F001
:100B200047F80120F2E700000014014010B5044628
:100B300001F040FC002001F04FFF0C2000F038F8DD
:100B400004F0010001F048FF1E2000F031F8012000
:100B500001F042FF052000F02BF810BD70B50446EF
:100B600072B6002505E02046FFF7E0FF6410681C20
:100B7000C5B2082DF7DB62B670BD70474FF0E021BB
:100B8000096921F004014FF0E02211610146C2170A
:100B900000EB5272D210054B1A70194609784FF4C7
:100BA0007A7251439A1C118070470000BC0C0020DF
:100BB0000B49097841434FF0E02251611146096920
:100BC00041F00101116100BF4FF0E021096911F40A
:100BD000803FF9D000214FF0E02211619161704710
:100BE000BC0C0020014948617047000000900240A1
:100BF00029B1064AD2690243044BDA6104E0034A90
:100C0000D2698243014BDA617047000000900240D4
:100C100030B10749896941F00201054A916105E057
:100C20000349896921F00201014A9161704700007E
:100C30000090024030B50024104D286000BF18E03D
:100C400000EB04134FF000451D6044F2F0555D6069
:100C5000C4EB441505EB841501EB05159D60551E8D
:100C6000A54204D900EB04151035DD6000E0D86022
:100C7000641C9442E4D3024DE86030BD040E0020B1
:100C80000090024021B1426822F00042426003E03D
:100C9000426842F0004242607047000030B10749AC
:100CA000896941F40051054A916105E00349896968
:100CB00021F40051014A9161704700000090024008
:100CC00030B500240F4D286000BF15E000EB041381
:100CD0004FF480151D60C4EB441505EB841501EB42
:100CE00005159D60551EA54204D900EB041510356D
:100CF000DD6000E0D860641C9442E7D3024D2861B7
:100D000030BD0000000E00200090024010B501210F
:100D1000880301F03BF900214FF4804001F036F9DF
:100D200010BD0021014600E0491E0029FCD170479A
:100D30000348806940F480100149886170470000D1
:100D4000009002400148006880687047000E002053
:100D500001460868C0F30D407047000000B500224E
:100D60000F480068006810F0004F16D10C4800686A
:100D7000006810F4004F10D109480068006810F4B2
:100D8000807F0AD006480068006810F4007F04D015
:100D900003480068FFF7DCFF0246104600BD000074
:100DA000040E002000200449096811F0010F01D051
:100DB000012000E0002070470090024010B501E0E3
:100DC00001F0E2F9FFF7CAFF0028F9D14020FFF750
:100DD00009FF4FF48030FFF705FF10BD2DE9F04704
:100DE00086B004460D4600260027B046DFF8209264
:100DF000B2468848076927F01C0701A801F0F6F8F9
:100E0000DDF808908448814505D38448814502D2A5
:100E100047F0080709E08148814505D37C488145B2
:100E200002D247F00C0700E000BF7A4807614FF498
:100E300000420021284600F08FFA18B9002006B0C1
:100E4000BDE8F0877648FFF76CFF2068002848D09F
:100E500000BF0AF1010A0121284600F029F910F02B
:100E6000040F02D16F488245F3D36E48824501D109
:100E70000020E4E74FF0000A4FF48052002128469A
:100E800000F06AFA08B90020D9E700BF0AF1010AA8
:100E90000121284600F00CF910F0200F02D1614822
:100EA0008245F3D35F48824501D10020C7E74FF068
:100EB000000A1021284600F0FBF8064616F0040F41
:100EC00003D04FF40060206201E00020206216F0A1
:100ED000020F02D00020606116E04FF48040606194
:100EE00012E0206AC0F3CF006169C1F34F0140EA0C
:100EF00001020021284600F02FFA08B900209EE7E1
:100F00006FF07F40FFF70DFF4248076846480740F3
:100F1000D4E901010843E168084321690843616994
:100F20000843A1690843E1690843216A0843616AEB
:100F30000843A16A0843E16A0843216B0843616BD7
:100F40000843074333480760D4E90E010843216C86
:100F50000843616C0843A16C0843E16C0843216DB0
:100F60000843616D08432B494860A06D8860E06DBF
:100F7000C860084687694FF641700740D4E91810E9
:100F800040EA0140A16E0843E16E0843216F084327
:100F9000616F084307431F488761D4E91E01084376
:100FA0001C49C8612148876921480740D4E92001CC
:100FB0000843D4F888100843D4F88C100843D4F8B8
:100FC00090100843D4F894100843D4F898100843BC
:100FD000D4F89C100843D4F8A010084307431348E2
:100FE0008761D4E929010843D4F8AC100843D4F848
:100FF000B0100843D4F8B41040EA8100D4F8B81017
:10100000084340F4000009490860012017E7000088
:101010000087930300800240002D3101C00E1602AC
:10102000FFFF0F00FFFF04000F8120FF0090024030
:10103000233FDEF810B50B794C7943EA0422094BC3
:1010400003441A64CB781B068C7843EA04434C783B
:1010500043EA04230C7843EA0402024B03445A6433
:1010600010BD00000080024030B10749096841F01E
:101070000401054A116005E00349096821F00401F3
:10108000014A1160704700000080024030B10749FA
:10109000096841F00801054A116005E00349096843
:1010A00021F00801014A11607047000000800240F1
:1010B00010B50246002300241348036903F01C0303
:1010C0004FF4784000EAC22003434FF4F86000EA8E
:1010D0008110034323F0020343F001030A48036134
:1010E00000BF641C0848036913F0010F02D00748D1
:1010F0008442F6D30548844201D1002010BD024845
:10110000406980B2FAE7000000800240FFFF04005F
:1011100010B50548006830B100F0D4FD0248002148
:101120000A460B460EC010BD38CF00201EB5002168
:101130006C4600221346944684E80C10214A12683B
:10114000126812F0004F10D0002200921E4A52691D
:1011500012F0800F04D080221B4B5A6100229A604B
:101160006A461CCA80E81C001EBD164A1268126836
:1011700012F4004F16D1134A1268126812F4807FDD
:1011800010D0104A1268126812F4007F0AD00D4A7B
:1011900012681268C2F30D42111F0A4A126892685F
:1011A000019200E000210091064A12680292054A6D
:1011B0001268D268034B1A606A461CCA80E81C0099
:1011C000D2E70000040E00200090024003480068AF
:1011D00040F00100014908607047000000900240A3
:1011E00000B50120FFF752FFFFF7A2FD0120FFF736
:1011F0003BFF0120FFF752FD0120FFF709FD00BD75
:101200000021016041608160C160016141618161D3
:10121000C161016241628162C162016341638163B4
:10122000C163402101642021416400218164C164C3
:10123000016541658165C1650166802141660021C6
:101240008166C166016741678167C1674FF0806150
:10125000C0F880104910C0F884104910C0F88810F8
:10126000C910C0F88C100021C0F89010C0F894107C
:10127000C0F89810C0F89C10C0F8A0104FF0007192
:10128000C0F8A4100021C0F8A8104FF40031C0F835
:10129000AC104912C0F8B0100021C0F8B410C0F86A
:1012A000B810704770B5054624480068006810F013
:1012B000004F1DD000F07EF8214801F01FF90222F6
:1012C00020492148FFF7FCFC042220492048FFF771
:1012D000B1FC002406E01E4901EB04100121FFF7D8
:1012E000D1FC641C042CF6DBFFF77AFF002070BDF4
:1012F000C5F30C001149096848601048006800688F
:1013000040F040500D49096808600C4800680068CA
:1013100040F000400949096808600E48406910F033
:10132000040F04D004200B494861002048600348A2
:101330000068C068014908600120D8E7000E00205D
:10134000260000207CBD00209CA50020BCA500201C
:101350005CA500200090024030B503460024002523
:101360001248046904F01C044FF4784000EAC320DA
:1013700004434FF4F86000EA8110044344F002048F
:1013800044F0010409484261046100BF6D1C074834
:10139000046914F0010F02D005488542F6D30448D1
:1013A000854201D1002030BD0120FCE700800240D1
:1013B000FFFF040000B5AFB0002000F027FA0620C0
:1013C00000F0DCFEFFF7A2FCFFF700FF00BFFFF715
:1013D000E9FC0128FBD06846FFF712FF01200090CE
:1013E000002007904FF400700A9000200B900E90A0
:1013F000119013901490159020904FF00070219050
:101400000011239000202590269004202890C005EC
:10141000299040122A9080012B9040122C9040007D
:101420002E9001216846FFF7D9FC01210248FFF701
:10143000DFFB2FB000BD0000400001002DE9F041AE
:1014400004460D461646012C09D161230FA213490B
:10145000134803F017F968B10020BDE8F081022CB1
:1014600008D161230FA20D490D4803F00BF908B113
:101470000020F2E72A463146094803F06FFC074690
:101480000649074800F0DAF80120E6E75265706F78
:10149000727446732E7478740000000040140020AB
:1014A000381500205265706F54656D702E74787415
:1014B0000000000070B504460D46062204F111013B
:1014C0003D48FEF7B9FE08B9002070BD607C3A497E
:1014D0000870A07C4870E07C8870207DC870607DBA
:1014E0000871A07D4871207E8871607EC871A07EE1
:1014F0000872E07E4872207F8872607FC8722F4831
:101500000068C8B972232EA23049314803F0BAF8F6
:1015100008B10020D9E72F4800F0CAF82749086031
:1015200008460068811F2C4B0622294803F0E7F982
:101530002649274800F082F82048001D0068D0B9ED
:1015400072231FA22149224803F09CF808B1002011
:10155000BBE7224800F0ACF81849091D08600846AE
:101560000068811F1C4B0622194803F0C8F917496F
:10157000174800F063F8772311A21449144803F0C8
:1015800081F808B10020A0E70C48001D0068811F09
:10159000094B06220E4803F03FFA08480068811FF5
:1015A000054B9B1D06220A4803F036FA07490848F6
:1015B00000F044F8012088E7080F0020780C002094
:1015C000696E6465782E7478740000004014002001
:1015D00038150020580C002088190020670C0020C6
:1015E00010B5772309A20C490C4803F04BF808B159
:1015F000002010BD0AA21B21084803F0AFFB0446DF
:101600000549064800F01AF80120F2E77465737482
:1016100032332E74787400004014002038150020F6
:101620007468697320697320612066696C657379D9
:101630007374656D207465737421000070B5044681
:101640000D46204602F0EAFF284603F0CFFD70BDAC
:1016500010B500210D4801F021FE00B110BD0CA213
:101660000C490D4806F090F800B1F7E700210B484F
:1016700001F014FE00B1F1E705A20949094806F09E
:1016800083F800B1EAE700F053FAE7E7180F00200B
:101690002F0000008C11002080140020CC110020AD
:1016A00040140020B414002010B5FFF799FF10BDBE
:1016B0002DE9F04104460025002700BF0E4A4FF4F3
:1016C00000710E4803F0C3FA054621460A48FEF7AA
:1016D0007EFD50B121460848FEF779FD06460649D1
:1016E000751A05EB4720BDE8F0817F1CB5F5007F3A
:1016F000E4D00020F7E7000088190020381500200A
:1017000008B50420ADF8000003208DF80200182071
:101710008DF803006946394800F07EF80620ADF8E0
:10172000000003208DF8020018208DF803006946A0
:10173000334800F071F843F62010ADF800000320A4
:101740008DF8020018208DF8030069462D4800F03E
:1017500063F801214FF0201000F0E6F80B20ADF8FF
:10176000000003208DF8020004208DF80300694674
:10177000224800F051F84FF48060ADF800000320DB
:101780008DF8020004208DF8030069461D4800F022
:1017900043F80820ADF8000003208DF80200042073
:1017A0008DF803006946164800F036F84FF4F850FB
:1017B000ADF8000003208DF8020004208DF803002E
:1017C0006946114800F028F81020ADF8000000200C
:1017D0008DF8030069460A4800F01EF84FF4807047
:1017E000ADF8000003208DF8020018208DF80300EA
:1017F0006946024800F010F808BD000000080140EA
:1018000000100140000C0140001401400149086033
:1018100070470000DC0020422DE9F0410022002347
:10182000002400250026002791F803C00CF00F02C9
:1018300091F803C01CF0100F03D091F802C04CEADD
:101840000202B1F800C01CF0FF0F31D0066800247E
:101850002BE04FF0010C0CFA04F5B1F800C00CEAD3
:101860000503AB4220D1A5004FF00F0C0CFA05F791
:10187000BE4302FA05FC4CEA060691F803C0BCF12F
:10188000280F06D14FF0010C0CFA04FCC0F814C06C
:101890000AE091F803C0BCF1480F05D14FF0010CEC
:1018A0000CFA04FCC0F810C0641C082CD1D30660EC
:1018B000B1F800C0BCF1FF0F34DD466800242EE013
:1018C00004F1080C4FF0010808FA0CF5B1F800C05B
:1018D0000CEA0503AB4221D1A5004FF00F0C0CFA26
:1018E00005F7BE4302FA05FC4CEA060691F803C070
:1018F000BCF1280F05D104F1080C08FA0CF8C0F867
:10190000148091F803C0BCF1480F07D104F1080C12
:101910004FF0010808FA0CF8C0F81080641C082C7D
:10192000CED34660BDE8F081F0B50022002300254B
:101930000024174E7568C0F3034482B200F44016C9
:10194000B6F5401F08D125F07065114E766826F077
:1019500070660F4F7E6012E000F48016B6F5801FAF
:1019600006D1032606FA04F39D4345F0706506E0B0
:10197000460D360102FA06F6B54345F0706521B111
:10198000460D360102FA06F63543014E7560F0BD8C
:10199000000001400246002093680B4201D0012064
:1019A00000E000207047416170470161704700000E
:1019B00000487047D40D00202DE9F0410024404834
:1019C000006805883E48006846883D4800680779F9
:1019D0003C49081908223CA1FEF7D4FB08340D202D
:1019E000384908550A21601C0446364A11541146EC
:1019F0000819122237A1FEF7C5FB12343149081924
:101A00002A4639A100F0F8FF2044C4B20D202D4928
:101A100008550A21601CC0B204462A4A11541146D6
:101A20000819122231A1FEF7ADFB04F11200C4B275
:101A30002449081932462CA100F0DEFF2044C4B22C
:101A40000D20204908550A21601CC0B204461D4AD9
:101A5000115411460819142229A1FEF793FB04F131
:101A60001400C4B2AA1B174908191FA100F0C4FF33
:101A70002044C4B20D20134908550A21601CC0B28D
:101A80000446104A1154114608190A2222A1FEF7F1
:101A900079FB04F10A00C4B20A4908193A4612A1B6
:101AA00000F0AAFF2044C4B20D20064908550A21BF
:101AB000601CC0B20446034A11541046BDE8F081D0
:101AC000140E00204F3A0020C4DAB4E6D0C5CFA2ED
:101AD00000000000D7DCC4DAB4E6CAFDA3A8D7D65C
:101AE000BDDAA3A9A3BA000025640000D2D1D3C3F4
:101AF000C4DAB4E6A3A8D7D6BDDAA3A9A3BA000076
:101B0000CAA3D3E0C4DAB4E6CAFDA3A8D7D6BDDA27
:101B1000A3A9A3BA00000000CAB9D3C3B1EACABEE0
:101B2000A3BA000010B5FEF71DFB00BFFEE70000E2
:101B300010B50021064801F0B1FB00B110BD05A2AF
:101B40000549064805F020FE00B1F7E7F6E700007A
:101B500044D300202F000000B8D50020F8D5002085
:101B60001FB50121084600F021FA40F60F6401215B
:101B7000880700F05FFD4FF4A06000F00BF91C2017
:101B80008DF80C0003208DF80D0000208DF80E005C
:101B900001208DF80F0003A800F0BAF80121880792
:101BA00000F057FD00220121880700F072FD00219E
:101BB0004FF0804000F050FDADF800400020ADF83F
:101BC0000600ADF80200C820ADF804006946C00662
:101BD00000F06EFD0121880700F03BFD0122114657
:101BE000900700F056FD00214FF0804000F05DFDB1
:101BF0000121880700F030FD1FBD000008B501215C
:101C0000202000F0E3F90120ADF800008DF802007B
:101C100014208DF8030069460148FFF7FDFD08BD5B
:101C20000014014000B587B005F0C2FE06F0C6F80A
:101C30000E4806904FF6FF7005900D4804900D4831
:101C400000F05CFC0C4B0D4A00218DE80E0004AB4B
:101C500005AA06A90A4806F0C7FA094806F014FBC7
:101C6000074806F067FB07B000BD0000C0A8FEFAF9
:101C7000C0A8001426000020293D0008153E0008D9
:101C8000C80E002010B50446FFF742FA0B48006862
:101C9000201AFA2805D3094804600BF04BFC00F029
:101CA00023FE07480068201A41F28831884203D396
:101CB0000348046001F08CFF10BD00000C00002000
:101CC0001000002010B5024802F0D0F810BD00004E
:101CD000C80E002000BFFEE7704708B500214FF096
:101CE000006000F075F84FF4A06000F053F83D205C
:101CF0008DF8000002208DF8010000208DF8020010
:101D000001208DF80300684600F002F808BD0000CD
:101D100070B5002100230F22C4784CB31A4C2468FC
:101D200004F4E064C4F5E0644FEA1421C1F1040353
:101D300022FA01F2447804FA03F1847804EA0204F6
:101D400044EA01014FEA0111104C0678A1550478CC
:101D500004F01F054FF0010404FA05F405784FEA7A
:101D600065154FF0E02606EB8505C5F8004109E052
:101D7000047804F01F040125A540054C067876116F
:101D800044F8265070BD00000CED00E000E400E0D7
:101D900080E100E002490143024A116070470000FF
:101DA0000000FA050CED00E010B5002807DA0A077C
:101DB000130E054A00F00F04241F135503E00A0711
:101DC000130E024A135410BD18ED00E000E400E0C9
:101DD000024A0A400243024B1A60704780FFFF1F0D
:101DE00008ED00E010B500200449086004490860CF
:101DF0000449086000F010F810BD0000DC0D002060
:101E0000E40D0020E00D002010B5FEF7E7FD10BD49
:101E100010B5FEF759FE10BD2DE9F05F0124002535
:101E20000026A24600270020444908704448006864
:101E3000002875D1FFF7ECFF40B900204149086048
:101E40003F49086040490860BDE8F09FF02000F07D
:101E500085F800BFFFF7D8FF8046FFF7D5FF814622
:101E6000B8F1010F03D1B9F1010F00D14AE0C84523
:101E700002D008F0FF0B21E03248006884420BDA00
:101E80003248805D00EA0A00002801DD012000E000
:101E9000002000F0FF0B08E02A480068844201D1CE
:101EA000012000E0002000F0FF0BBBF1000F05D186
:101EB00025462C46092D01DA23480560BBF1010FA8
:101EC00006D12248805D40EA0A002049885505E095
:101ED0001E48805D20EA0A001C498855584600F0DB
:101EE00037F8641C4FEA4A604FEA106ABAF1000FF3
:101EF00006D11649885D01F0C1F9761C4FF0010A40
:101F0000082EA7DB00BF412C0ADB0C48007838B94B
:101F10000C480560006810B90120094908600127D4
:101F200017B10A48007838B900200649086004490A
:101F30000860054908600027384685E7E80D00205D
:101F4000E40D0020DC0D0020E00D0020D40D002069
:101F500010B504462046FEF7E9FD10BD10B5044655
:101F60002046FEF7FBFD10BD7047000029B1064A70
:101F700052690243044B5A6104E0034A52698243A6
:101F8000014B5A61704700000010024029B1064A17
:101F9000926A0243044B9A6204E0034A926A8243C3
:101FA000014B9A62704700000010024029B1064AB6
:101FB000D2690243044BDA6104E0034AD2698243E6
:101FC000014BDA61704700000010024029B1064A57
:101FD00092690243044B9A6104E0034A9269824386
:101FE000014B9A6170470000001002402DE9F0415A
:101FF00000210022002300240025002600278C4613
:10200000DFF86481D8F8048008F00C0121B10429BC
:1020100007D0082959D109E0DFF85081C0F80080C5
:1020200058E0DFF84C81C0F8008053E0DFF83881D9
:10203000D8F8048008F47012DFF82C81D8F80480F6
:1020400008F48033920C0D2A01D0921C00E0062285
:1020500033B9DFF8208102FB08F8C0F8008033E0D4
:10206000DFF80481D8F82C8008F48035DFF8F88098
:10207000D8F82C8008F00F0808F1010645B9DFF800
:10208000F080B8FBF6F808FB02F8C0F800801BE00F
:10209000DFF8D480D8F82C80C8F3031808F10107C2
:1020A000DFF8C480D8F82C80C8F3032808F1020CAC
:1020B000DFF8BC80B8FBF7F808FB0CF8B8FBF6F8C3
:1020C00008FB02F8C0F8008004E0DFF8A080C0F848
:1020D000008000BF00BFDFF89080D8F8048008F0CF
:1020E000F0010909DFF8908018F80140D0F800806D
:1020F00028FA04F8C0F80480DFF86C80D8F804806F
:1021000008F4E061090ADFF8708018F80140D0F89F
:10211000048028FA04F8C0F80880DFF84C80D8F86A
:10212000048008F46051C90ADFF84C8018F80140B7
:10213000D0F8048028FA04F8C0F80C80DFF8288072
:10214000D8F8048008F44041890BDFF82C8008F1AE
:10215000100818F80140D0F80C80B8FBF4F8C0F86B
:102160001080BDE8F08100000010024000127A00EB
:1021700040787D0100093D00E90D00200149C8714A
:1021800070470000001002400EB51148FEF7CEFF68
:102190000F4968460EC90EC00D48006840F2DC5178
:1021A000884205D80A48026841680A48FDF7EAFFF4
:1021B0004FF000400649896808600748406910F000
:1021C000800F04D0802004494861002088600EBD43
:1021D00038CF00205CC900200090024021B1028865
:1021E00042F04002028004E002884FF6BF731A40BA
:1021F0000280704700B587B001210520FFF7E6FE99
:1022000001210803FFF7E2FEE020ADF818000320EB
:102210008DF81A0018208DF81B0006A91948FFF741
:10222000FBFA1020ADF8180003208DF81A001020DA
:102230008DF81B0006A91348FFF7EEFA0020ADF851
:1022400004004FF48270ADF806000020ADF80800DD
:10225000ADF80A00ADF80C004FF40070ADF80E00B8
:102260000020ADF81000ADF812000720ADF8140002
:1022700001A9054800F018F801210348FFF7AEFF57
:1022800007B000BD000801400030014002460020B8
:1022900013890B4201D0012000E000207047014665
:1022A000888970478181704710B50022028802F446
:1022B00041520B884C8823438C882343CC8823438A
:1022C0000C8923434C8923438C892343CC892343A2
:1022D0001A430280838B4FF2FF74234083830B8A5F
:1022E000038210BD7047000070B505462048007895
:1022F00000283BD11F480078002837D01E480068CE
:10230000281AB0F57A7F31D31B48056012221B4989
:102310001B48FDF737FF0123DA0219491948006805
:102320000BF046F9044664B91648006809F096FBBC
:10233000E0B101200E4908701248006808F0A6FBC1
:1023400014E011480078401C0F49087008460078D6
:1023500032280BDB0020087000BF601C06D0012073
:10236000034908700748006808F090FB70BD000042
:102370002C0000203C0000204008002029220020E2
:102380003D000020480C00203D08002008B5012138
:102390002020FFF71BFE0120ADF800008DF80200A1
:1023A00048208DF8030069460148FFF735FA08BD5B
:1023B0000014014008B501212020FFF707FE01208D
:1023C000ADF800008DF8020014208DF80300694676
:1023D0000148FFF721FA08BD0014014010B500F0D4
:1023E00001F810BD10B5002000213F4B1B6843F4DD
:1023F00080333D4C236000BF3C4A3B4B1B6803F4D9
:102400000031401C00BF1300A2F10102FBD111B941
:10241000B0F5A06FF0D1344B1B6813F4003F01D02E
:10242000012100E0002101295BD1314B1B6843F001
:1024300010032F4C236023461B6823F00303236003
:1024400023461B6843F002032360274B5B68264C3E
:10245000636023465B68636023465B6843F4806384
:1024600063602346DB6A234C23401F4CE362234610
:10247000DB6A214C23431C4CE36223461B6843F078
:102480008063236000BF184B1B6813F0006FFAD005
:10249000154B5B6823F47C13134C636023465B6825
:1024A00043F4E813636023461B6843F080732360A2
:1024B00000BF0D4B1B6813F0007FFAD00A4B5B681E
:1024C00023F00303084C636023465B6843F0020378
:1024D000636000BF044B5B6803F00C03082BF9D169
:1024E00001E000BFFEE710BD00100240A086010021
:1024F0000020024000F0FEFF4406010010B5044633
:1025000020780849087060784870A0788870E07872
:10251000C870207908716079487121460020FEF763
:1025200089FD10BDA40E002010B500F00BFA10BDFF
:1025300010B51448006840F00100124908600846D0
:102540004068114908400F494860084600680F4933
:1025500008400C4908600846006820F480200860A4
:102560000846406820F4FE0048600846006820F0F5
:10257000A05008604FF47F0088600020C862FFF719
:102580002DFF10BD001002400000FFF0FFFFF6FE1F
:1025900010B586B0FFF7CCFF01214804FFF706FD18
:1025A00001214FF4E030FFF7E1FC012140F27D20F2
:1025B000FFF70CFDFFF791FBFFF7A2F8FEF7FAFE1D
:1025C00001A8FFF713FD64210198B0FBF1F4B4F109
:1025D000807F00D311E024F07F40401E4FF0E021C7
:1025E00048610F214FF0FF30FFF7DEFB00204FF076
:1025F000E02188610720086100BF0121881EFFF7E4
:10260000D3FB06B010BD000010B50121880700F013
:102610002FF860B10121880700F018F80121880720
:1026200000F017F8024800680A300149086010BD40
:102630000000002021B1028842F08002028004E004
:10264000028840F27F331A4002807047CA430282F8
:102650007047CA430282704721B1028842F00102EA
:10266000028004E0028840F2FE331A400280704784
:1026700030B50246002000230024158A05EA010334
:10268000958905EA010413B10CB1012000E0002096
:1026900030BD10B51AB183890B43838104E083896F
:1026A000CC43A4B22340838110BD818470470000D5
:1026B000028802F08F020280CA884B881A4303887E
:1026C0001A4302808A8882850A880285054A9042D8
:1026D00002D0054A904201D10A7A02860122828202
:1026E00070470000002C01400034014010B5044642
:1026F0000F480068201A41F28831884217D30C48ED
:1027000004600C48007830B10C220BA10120FEF7C8
:1027100095FE07F0D9FF0B48007840B90120094920
:1027200008700C2208A1FEF789FE0BF0A7FC10BD73
:10273000380000202C0000205443505F5265747212
:10274000790D0A002D0000205544505F52657472C7
:10275000790D0A0070B505460C461646207A40F001
:10276000080020724FF4FA70C4F88C00C4F890008E
:102770000220C4F89400054920460AF0F9FA0449F9
:10278000204608F077FC002070BD00009527000867
:10279000A72D00082DE9F04107460E4614461D46B8
:1027A0001DB914B1204606F0A3F805B90CB1002DEF
:1027B00002DA304608F06AF9BDE8F08110B5044647
:1027C0004FF47A70B4FBF0F03F49086008460068A7
:1027D0003E49884244D13E480088401C3C4908801C
:1027E0000A203C4908703A480088642190FBF1F0C7
:1027F00030303849487036480088642190FBF1F247
:1028000001FB12000A2190FBF1F030303149887051
:102810002F480088642190FBF1F201FB12000A218D
:1028200090FBF1F201FB120030302A49C8702848B1
:102830000088642190FBF1F201FB12000A2190FB59
:10284000F1F201FB12003030224908710A20487170
:1028500000201D49086006221E490220FEF7EEFDF9
:102860001D480068201AB0F5FA6F2CD31A4804608E
:10287000FDF740FF052219491948FDF783FC0622A0
:1028800016490B311648401DFDF77CFC0622134902
:10289000123113480B30FDF775FC002010494874C5
:1028A00021210E48801FFEF705FE0E480088401CBF
:1028B0000C490880084600885A2804DB002008805C
:1028C000074805F063FB10BDC00C002080510100DB
:1028D000C80C0020CC0C0020C40C0020FE210020DD
:1028E00029220020CA0C002010B510480078D8B169
:1028F0000F480078401C0E4908700846007855289B
:1029000012DD00230B4802880B490C4800680BF0CD
:102910009FFA0B480168094800680BF023F9002072
:10292000024908700249087010BD0000A00C002088
:10293000A10C0020B00C0020AC0C0020A80C002042
:10294000A40C00207047000038B5054619480090D7
:102950001948007808B319480078F0B118480068A1
:10296000281AB0F5FA6F24D31548056000222021FB
:10297000104605F084FD044684B1202211496068A8
:10298000FDF700FC41F690730F4A21460F4800689E
:102990000BF026FD204605F0ABFF0AE00C4800785E
:1029A000401C0B49087008460078322801D10020ED
:1029B000087038BDC0A800A32D0000203C000020F6
:1029C000440C0020F821002098E600084C0C002060
:1029D0003E08002000BFFEE710B5044624B10121E7
:1029E0000448FEF7E2FF03E001210248FEF7DBFFA7
:1029F00010BD0000001401400FB410B504A9074B2E
:102A000002AA039800F020F8044602A9002000F072
:102A1000C5F9204610BC5DF814FB00009D2D000890
:102A200000487047C40E002002E008C8121F08C109
:102A3000002AFAD170477047002001E001C1121F3F
:102A4000002AFBD1704700002DE9FF4F8DB00546ED
:102A50008846002669E125287ED100246D1CB949ED
:102A6000A146A24601222B78203B02FA03F008423D
:102A700002D004436D1CF6E728782A2816D158F8AE
:102A8000049BB9F1000F03DA44F40054C9F10009C2
:102A900044F002046D1C10E009EB890002EB4000D9
:102AA00044F0020401EB00096D1C01E06FF02F02FD
:102AB0002978A1F130000928EED928782E2818D1DC
:102AC00015F8010F44F004042A280BD158F804AB80
:102AD0006D1C0EE00AEB8A0002EB400001EB000ADD
:102AE0006D1C01E06FF02F022978A1F13000092858
:102AF000F0D928786C280ED008DC4C2816D068282D
:102B00000CD06A2813D144F400140FE074280DD0BF
:102B10007A280CD10AE044F4801401E044F4401413
:102B20006978814202D16D1C04F580146D1C2878EF
:102B3000692806D017DC002876D0632843D06428A3
:102B40008AD10A2758F8040BC4F30251032900D193
:102B500000B2042902D100E0EFE040B2002871DAAF
:102B600040422D2171E06E2810D0732836D0752890
:102B7000E6D10A2758F8040BC4F30251032900D107
:102B800080B2042900D1C0B2002161E0C4F3025038
:102B9000022806D1D8F80010F217C1E900624046B9
:102BA0000EE0032804D1D8F8001040460E8007E05C
:102BB0000428D8F80010404601D10E7000E00E60E5
:102BC00000F10408B0E058F8041B8DF82C10002028
:102BD0008DF82D000DF12C0B012003E058F804BBFB
:102BE0004FF0FF3061074FF000070AD500E07F1C6F
:102BF00057450EDA8742FADB1BF807100029F6D199
:102C000007E000E07F1C8742FCDB1BF8071000296F
:102C1000F8D1DDE90F23A9EB07092146484600F06A
:102C2000A6F83044C61905E083E0DDE90F121BF871
:102C3000010B90477F1EF8D2DDE90F23214648465D
:102C40006FE0FFE7210505D52B218DF80C10012140
:102C5000019103E0E10797D02021F6E70DF1300B59
:102C600008E03946FDF7F7FBABF1010201F1300155
:102C7000934611700028F4D104A9A1EB0B0000F1D8
:102C800020000290600702D524F4803401E04FF068
:102C9000010A029A0020924501DDAAEB0200824659
:102CA000019910440144A9EB01000C90E00306D403
:102CB000DDE90F2321460C9800F059F8064400275F
:102CC0000DF10C0906E0DDE90F1219F80700904735
:102CD000761C7F1C01988742F5DBE0030CD5DDE90B
:102CE0000F2321460C9800F042F8064404E0DDE989
:102CF0000F1230209047761CBAF10000AAF1010AA9
:102D0000F5DC05E0DDE90F121BF8010B9047761C9E
:102D10000298411E02910028F4DCDDE90F232146D0
:102D20000C9800F011F806446D1C287800287FF4F8
:102D300092AE304611B0BDE8F08FDDE90F1290473A
:102D4000761CF1E7092801002DE9F0410446002531
:102D500017461E46880407D504E039462020B047B0
:102D600005F10105641EF8D52846BDE8F0812DE97E
:102D7000F04104460025302790461E46C80300D483
:102D80002027880407D404E041463846B04705F1BF
:102D90000105641EF8D52846BDE8F0810A68531C79
:102DA0000B60107070477047F0B50246002000239A
:102DB00023E0D75C00241AE0C0F38015FE0995EAF1
:102DC000060C08D080F004004FEA406C4FEA1C600B
:102DD00040F0010003E04FEA406C4FEA1C6004F150
:102DE000010C0CF0FF044FEA476C4FEA1C67082CFB
:102DF000E2DB03F1010C0CF0FF038B42D9DBF0BDE9
:102E0000F0B587B004460E46324601A9204602F0CE
:102E100040F9012201A9204601F0CCF818B14FF089
:102E2000FF3007B0F0BD01A9204602F0FCF80746CC
:102E3000012201A9204601F0BDF810B14FF0FF308A
:102E4000EFE73A463146204601F063F8054603E0D5
:102E50002046039901F099FF681C0546024601A926
:102E6000204601F079F80028F2D00020D9E770B5AB
:102E700006460C4615460B222146284604F039FD2D
:102E80000020E07220736073E0812082208A6082DB
:102E90000020A082E089E082208A208300206083D5
:102EA000E06170BD2DE9F04104460E4615462968E3
:102EB0000222206805F09EFA0746287907EB4011A8
:102EC0002022304604F015FD3946206805F0CEFA80
:102ED000BDE8F081F0B589B004460D4617460026DE
:102EE0002AE004EB4611202201A8FDF74BF99DF8DA
:102EF0000F0000F00F000F281CD00B22294601A85C
:102F000007F068FAB0B907B13E7117B19DF80F002C
:102F10007871BDF81E00BDF8181010EB014002D109
:102F2000012009B0F0BDBDF81E00BDF8181000EB7F
:102F30000140F6E7701CC6B2102ED2DB0020F0E78D
:102F400070B588B004460D46002619E004EB461122
:102F500020226846FDF716F99DF80B0000F00F00DF
:102F60000F280BD09DF8000018B19DF80000E5284F
:102F700004D105B12E71012008B070BD701CC6B21D
:102F8000102EE3DB0020F7E72DE9F04104460D4663
:102F900017461E4616B1012E0CD106E03A462946C8
:102FA0002046FFF797FFBDE8F08139462046FFF73E
:102FB000C7FFF8E70020F6E72DE9F84F04460D4675
:102FC00016461F46DDF828800020009081462AE042
:102FD0002946204601F0FDFE00EB090B012259466F
:102FE000206805F007FA009043463A4631460098BB
:102FF000FFF7CAFF5FEA000A0DD02FB1294620462D
:1030000001F0E7FE484438602068009905F02EFA88
:103010005046BDE8F88F2068009905F027FA09F1BD
:10302000010000F0FF09A0794845D1DC0020F0E75D
:103030002DE9F04788B004460D4616461F46DDF8D8
:1030400040804FF000090596049600208DF8080096
:1030500006900390012E08D843463A46294620465A
:1030600000F01CF808B0BDE8F0870CE0CDF8008057
:103070003B462A4620460499FFF79EFF5FEA000A76
:1030800001D05046EEE74A4609F1010902A920465F
:1030900000F062FF0028E9D00020E3E72DE9F047C7
:1030A00004460D4616461F464FF0000994F83C00B2
:1030B000012806D094F83C00022802D00020BDE888
:1030C000F087D4F82C801DE001224146206805F0ED
:1030D00091F981463B46324629464846FFF754FF60
:1030E0005FEA000A08D00EB1C6F8008049462068A1
:1030F00005F0BCF95046E2E74946206805F0B6F90C
:1031000008F10108A089C11700EBD161E26A02EB66
:1031100061114145D8D84946206805F0A7F900203B
:10312000CDE7FEB504460F4600260B21684604F0A5
:10313000D7FB0B21384604F0D3FB254620782F28F7
:1031400000D16D1C06E00B223946684604F0D1FB25
:10315000701CC6B26946284601F02EFD0500F2D16A
:103160000EB10120FEBD0020FCE72DE9F041044630
:103170000E46154629680122206805F03BF90746EE
:10318000287907EB401120223046FCF7FBFF394637
:10319000206805F06BF9BDE8F0812DE9F0410446A7
:1031A0000D46164629680222206805F023F90746D5
:1031B000287907EB4010C6613946206805F056F9BA
:1031C000BDE8F0812DE9F04104460D461646296818
:1031D0000222206805F00EF90746300C297907EB2A
:1031E00041118882297907EB41114E8339462068C5
:1031F00005F03CF9BDE8F0812DE9F04104460E46AA
:10320000154629680222206805F0F4F80746287957
:1032100007EB40112022304604F06BFB3946206852
:1032200005F024F90020BDE8F08170B505460C4694
:103230002C6000202871284600F001F870BD70B5A0
:10324000044605220021206803F0E9F8064600251F
:103250000CE04FF4DF7303EB051204F1080000EB00
:103260000511304600F018FE681CC5B2042DF0DBD5
:103270003146206803F076FA70BD0000014605482B
:1032800000784840044A105C024A107010460078EA
:1032900070470000E80D0020D40C002070B50446F3
:1032A0000D462946204602F0A4FD80BB002221469F
:1032B000201D03F08CF9211D04F50970FFF7B5FFFF
:1032C00004F5097104F51B7005F0A6F894F9700275
:1032D000401C10D10B214FF40C7001550021C4F893
:1032E00034124FF40E702168015104F5097104F590
:1032F0001B7005F091F804F51B7104F51D7001F0C9
:10330000D7FE10B16FF0010070BD0020FCE7FFE7B1
:103310004FF0FF30F8E700002DE9FC4704460D466A
:10332000164600BF1CB900BF00BFBDE8FC8700BF48
:1033300070892A280EDA5748408C401C81B25548C3
:103340004184C08B401C81B25248C183304605F095
:10335000CFFAEAE7D6F8048008F10E073888B0F50E
:10336000807F08D13879062805D17879042802D1E0
:10337000788808280ED04748008D401C81B2454807
:103380000185C08B401C81B24248C183304605F0A4
:10339000AFFACAE73F48408B401C81B23D484183A9
:1033A000042207F10E0101A8FCF7ECFE042207F14C
:1033B00018016846FCF7E6FE201D01D0606810B9D0
:1033C0004FF0000908E000986168884201D10120AF
:1033D00000E0002000F0FF09B9F1000F01D001204A
:1033E00000E00220C3B207F1080201A9204600F064
:1033F00035FCF888B0F5807F03D0B0F5007F3DD173
:103400003BE0B9F1000F36D0022004F0ECF9F8806F
:10341000042207F10E0107F11800FCF7B3FE0422A5
:10342000211D07F10E00FCF7ADFE00BF94F8260049
:10343000062801D000BF00BF00BF062207F1080127
:1034400007F11200FCF79EFE062207F10801404634
:10345000FCF798FE0622294607F10800FCF792FEC9
:103460000622294608F10600FCF78CFE314620466C
:10347000A269904700E000BF07E006E00548808DA4
:10348000401C81B20348818500BF00BF304605F073
:103490002FFA4AE778A300202DE9FC5F04460D4689
:1034A0000A260A27B0464FF000094FF0000A002014
:1034B0000190B346009000BF67E009EB8900624AC3
:1034C00002EB8000817CB8F10A0F03D111B94FFAE9
:1034D00089F856E0002954D000BF012903D0022901
:1034E00001DA00BF00BF00BF64B109EB8902564B8F
:1034F00003EB820220685268904203D14FFA89F0B0
:10350000BDE8FC9F012928D109EB89004E4A52F8F9
:10351000200088B109EB890002EB8000C07C009A92
:1035200090422EDB4FFA89FB09EB8900464A02EBF9
:103530008000C07C009024E009EB8900424A02EB45
:103540008000C07C50451CDB4FFA89F609EB8900EE
:1035500002EB800090F813A013E0022911DB09EBC5
:103560008900394A02EB8000C27C0198824208DB64
:103570004FFA89F709EB8900334A02EB8000C07CDF
:10358000019009F1010000F0FF09B9F10A0F94DB85
:1035900015F0020F05D1B8F10A0F05D115F0010F92
:1035A00002D14FF0FF30ABE7B8F10A0F02DA08F0B2
:1035B000FF0925E00A2F0BDA07F0FF0900BF09EB2E
:1035C0008900214951F8200008B100BF00BF0DE07B
:1035D0000A2E02DA06F0FF0908E0BBF10A0F02DA50
:1035E0000BF0FF0902E04FF0FF3089E700BFB9F1AF
:1035F0000A0F01DB00BF00BF00BF484600F026F8FD
:1036000000BFB9F10A0F01DB00BF00BF00BF00BF60
:1036100009EB89000C4901EB8000807C08B100BFF8
:1036200000BF00BF34B109EB8901074A02EB8101F9
:1036300020684860002009EB8901034A02EB810100
:10364000C8744FFA89F05BE794A4002010B50446D3
:1036500004EB84000C4951F8200060B104EB8401B4
:10366000094A52F8210005F043F9002004EB8401D7
:10367000054A42F82100002004EB8401024A02EBD3
:103680008101887410BD000094A400202DE9FC473E
:1036900004460D461646B04600BF0CB900BF00BF39
:1036A00000BF00BF0DB900BF00BF00BF00BF0EB913
:1036B00000BF00BF00BF0E21284605F08CF940B1C5
:1036C0004D484089401C4C4948816FF00100BDE8DD
:1036D000FC872146306803F0F5F808B1474F83E0D6
:1036E000306800F0F000E02815D101208DF80000CE
:1036F00000208DF801005E208DF80200707800F047
:103700007F008DF80300B0788DF80400F0788DF814
:1037100005006F4667E03068A1680840D4E90112EF
:103720001140884210D0306880B2A0F57E41A9399E
:103730000AD014F10C0004D0E06810B104F10C08B8
:1037400002E06FF00300C2E72D48007800EB800034
:103750002C4901EB8000807C022818DB284909787D
:1037600001EB8101274A02EB8101D8F8000049688A
:1037700088420CD12048C08D401C81B21E48C185B2
:103780001F4802782946204600F03EF89FE74FF098
:1037900000091FE009EB89001A4901EB8000807CD9
:1037A000022813DB09EB8901164A02EB8101D8F8E4
:1037B00000004968884209D1114981F8009009F058
:1037C000FF022946204600F01FF880E709F10100BA
:1037D0004FFA80F9B9F10A0FDCDB2A464146204650
:1037E00000F052F873E700BF3B4604F12702294678
:1037F000204600F0CBF96AE778A300209CE6000899
:10380000960E002094A4002070B504460D4616467E
:1038100000BF06EB86001B4901EB8000807C02287C
:1038200001DA00BF00BF00BF06EB8600154901EBBF
:103830008000807C022817D106EB860001EB800017
:10384000C07CE42810DB06EB86000A4602EB800011
:10385000011D204600F084F930B9032006EB8601F3
:10386000084A02EB8101887406EB8600054901EBEA
:10387000800000F10C0304F127022946204600F0E5
:1038800085F970BD94A400202DE9F05F04460D4633
:10389000164604F127074FF0FF382146286803F049
:1038A00011F838B9286800F0F000E02802D00DB116
:1038B000286818B96FF00D00BDE8F09F0121284677
:1038C000FFF7EAFD8146B9F1000F08DA2EB15E4834
:1038D000808C401C81B25C4881844846ECE709EB4F
:1038E00089005A4901EB8000807C30B9012009EB46
:1038F0008901564A02EB8101887400BF09EB8900F7
:10390000524901EB8000807C012808D009EB890036
:1039100001EB8000807C022801DA00BF00BF00BFFD
:1039200009EB8900494901EB8000807C012800D027
:103930003EB92946204600F013F980460EB94046AC
:10394000BAE700BF0EB900BF00BF00BF09EB890096
:103950003E4901EB8000807C022810DB3C4981F865
:10396000009009EB8900394901EB800000F10C035C
:103970003A463146204600F009F9804662E009EBFC
:103980008900324901EB8000807C01285AD14FF038
:10399000000BB24615E000BFBAF80A00BAF80810EA
:1039A000884204D1DAF8000008B100BF00BF00BFB0
:1039B0009AF80C00012802D04FF0010B04E0DAF86D
:1039C00000A0BAF1000FE6D100BFBBF1000F14D088
:1039D000BAF808100022032004F051FD8246BAF123
:1039E000000F0ED03146504604F0C3FE48B1504699
:1039F00004F07EFF4FF0000A03E0B246504605F0A7
:103A0000ECF8BAF1000F14D009EB89000F4951F816
:103A1000200030B109EB89010C4A52F8210004F072
:103A200067FF09EB8900094941F820A04FF0000821
:103A300007E00548808C401C81B2034881844FF028
:103A4000FF3800BF404637E778A3002094A4002049
:103A5000960E00202DE9FE4F04460D4616461F46E1
:103A6000DDE90D9ADDF830800020029000BF0CB92E
:103A700000BF00BF00BF00222A21032004F0FFFC8A
:103A80008346BBF1000F09D13448808C401C81B2C1
:103A9000324881844FF0FF30BDE8FE8F00BFBBF895
:103AA0000A002A2801DA00BF00BF00BFDBF80410BB
:103AB000019101990E3100910F9803F094FE009945
:103AC000C88000BF94F82600062801D000BF00BFC0
:103AD00000BF0622394600980830FCF753FB062247
:103AE000494600981230FCF74DFB062231460198FA
:103AF000FCF748FB062229460198801DFCF742FB93
:103B00000422414600980E30FCF73CFB042251464B
:103B100000981830FCF736FB4FF480710098018054
:103B2000082000994880062100980171042100981E
:103B300041714FF4C1610198818159462046A269C3
:103B4000904702900548008B401C04490883584662
:103B500004F0CEFE4FF0000B02989DE778A3002002
:103B60007FB504460D4601230649201D8DE823003C
:103B7000039304F12703044A19462046FFF76AFF1E
:103B800004B070BDA2E600089CE600082DE9F041F3
:103B900004460D46174698466E6800BF94F8260006
:103BA000062801D000BF00BF00BF062241463046B4
:103BB000FCF7E8FA06223946B01DFCF7E3FA0820C4
:103BC000B08129462046A2699047BDE8F0810000F7
:103BD00070B500243DE004EB84001F4901EB800038
:103BE000857C25B304EB840001EB8000C07C401C85
:103BF00004EB8401184A02EB8101C87404EB8400D1
:103C0000114601EB8000C07CF0280DDA04EB840043
:103C100001EB8000807C01280AD104EB840001EBD9
:103C20008000C07C022803DB2046FFF70FFD0EE07A
:103C300004EB8400084901EB8000807C032806D156
:103C4000022004EB8401044A02EB81018874601CA9
:103C5000C4B20A2CBFDB70BD94A400202DE9F0474C
:103C600004460D4616461F4600BF94F82600062857
:103C700001D000BF00BF00BF5DB1286848B1214638
:103C8000286802F01FFE20B9286800F0F000E02844
:103C900003D16FF00D00BDE8F08739462846FFF7E5
:103CA000FBFB8046B8F1000F01DA4046F3E7022043
:103CB00008EB88011B4A02EB8101887408EB88003D
:103CC000114601EB8000846008EB880102EB810162
:103CD00001F10C0006223146FCF754FA002008EBF3
:103CE0008801104A02EB8101C87408EB8800114674
:103CF00051F8200098B108EB880051F8209000207E
:103D000008EB880142F82100334604F127024946B6
:103D10002046FFF73BFF484604F0EAFD00BF0020C5
:103D2000B9E7000094A400202DE9F04104460D46B7
:103D30004FF00E0860890E280BDC3448008D401CC3
:103D400081B232480185C08B401C81B22F48C183AB
:103D500056E06668B789307810F0010F16D03078D9
:103D6000012809D1707888B9B0785E280ED1607BBF
:103D700040F01000607309E0062225493046FCF748
:103D80005BFA18B9607B40F008006073082F03D01D
:103D9000B7F5C16F24D116E095F82D0010F0200F73
:103DA00000D12DE0C8F1000001B2204604F013FE5E
:103DB00020B100BF00BF00BF00BF21E02946204660
:103DC00002F09AFE18E095F82D0010F0200F00D1B7
:103DD00016E0224605F127012846FFF79DFA0BE081
:103DE0000A48008D401C81B208480185C08B401CE8
:103DF00081B20648C18303E000BF0020BDE8F08126
:103E0000204604F075FD0020F8E7000078A30020AC
:103E10009CE6000870B5054600BF0DB900BF00BFA5
:103E200000BF082003F0F8FD044614B94FF0FF303E
:103E300070BD0AA02862EC61732085F82E00742101
:103E40002F204155074868610748A86105F1270000
:103E50002060284603F012FC0020E9E7776A775FCC
:103E6000697000008D3600085577000870B504466B
:103E7000204603F049FC064616B94FF0FF3070BDEE
:103E8000214630462269904705461DB1304604F070
:103E90002FFD00262846F2E770B504460E4615466B
:103EA000605D307060194078707060198178B17011
:103EB0006019C178F170601900793071601940792A
:103EC000707160198179B1716019C179F1716019EE
:103ED000082100F00FF8B06060190C2100F00AF81A
:103EE000F06070BD0246505C53185B7800EB032015
:103EF00080B270470246C81C105C0306881C105C28
:103F000003EB0043481C105C03EB0023505C184497
:103F100070472DE9F04186B004460D46164600274D
:103F2000B84600208DF8000004900190029003959F
:103F300004E00298B04201D1DDF804803A467F1CCB
:103F40006946204600F008F810B9B8F1000FF0D02B
:103F5000404606B0BDE8F08170B504460D461646F1
:103F60006868B04201D8A86828B900206860E8688D
:103F7000A860002028706868B04201D1002070BDA0
:103F800013E0287848B12878401E28706868401CE3
:103F90006860A868401CA86007E02946204600F039
:103FA00072F910B14FF0FF30E9E76868B042E8D12C
:103FB0000020E4E72DE9FC5F04460D461646B046B6
:103FC0004FF0000AD34600200190E868012802D88B
:103FD00030B2BDE8FC9F2946204601F024F8814616
:103FE0004F467AE07F1C206A401CB8422AD80198CC
:103FF00018B34946204600F09EF90090022220683E
:10400000009904F0F7F98246204600F0BCF95346C7
:10401000024649460090204600F088FAC5F8109004
:104020005146206804F022FAA6EB0801606B401AA2
:104030006063A6EB080000B2CBE702270198401CA2
:10404000C0B201903946204600F075F90090012277
:104050002068009904F0CEF982465246394620463F
:1040600000F0C1F8B8B94946204600F064F9009064
:1040700002222068009904F0BDF983465B463A4667
:104080004946204600F052FA5946206804F0EEF9FD
:10409000A8F10108B9465146206804F0E7F9B8F1E3
:1040A000000F1AD14946204600F045F9009002223F
:1040B0002068009904F09EF98246204600F063F9DA
:1040C0005346024649460090204600F02FFAC5F8B4
:1040D00010905146206804F0C9F9B8F1000F81D161
:1040E000686910B1686930446861002071E770B593
:1040F00086B004460E460025012E02D8002006B0E8
:1041000070BD00208DF8000004900190029003968D
:1041100000BF2A466D1C69462046FFF71DFF002898
:10412000F7D0681EEBE72DE9F05F04460D464FF02F
:10413000000B2946204600F0FEF882462089AAEBB3
:104140000000616A814202D9BAF1000F02D1002059
:10415000BDE8F09F01225146206804F04BF9064665
:1041600094F83C00012804D002282BD0032833D136
:104170002DE005EB4500C0F3480916F80970A9F5D4
:104180008070FF380DD13146206804F06FF90122AC
:104190000AF10101206804F02DF9064696F8008026
:1041A00003E009F1010016F8008015F0010F04D1B9
:1041B00008F00F0007EB002B03E04FEA081000EBBC
:1041C000271B09E005F0FF0936F819B004E005F0F7
:1041D0007F0956F829B000BF00BF3146206804F0BF
:1041E00045F95846B4E72DE9F84F04460D46164602
:1041F0000020009094F83C00012804D0022832D01E
:1042000003283CD135E005EB4500C0F3480A16F819
:104210000A80AAF58070FF3812D12946204600F0A6
:104220008AF800F1010B01225946206804F0E2F8F7
:10423000074697F800903946206804F017F903E024
:104240000AF1010016F8009015F0010F05D109F0F0
:104250000F0008EB0020009004E04FEA091000EB8B
:10426000281000900BE005F0FF0A36F81A000090C5
:1042700005E005F07F0A56F82A00009000BF00BF55
:104280000098BDE8F88F2DE9F05F04460D464FF029
:10429000000AA86818B94FF0FF30BDE8F09F20462B
:1042A000A96800F048F8064601223146206804F06B
:1042B000A1F883465A462046A968FFF794FF814635
:1042C0004946204600F074F840B1A8682861594674
:1042D000206804F0CBF84FF0FF30DEE7C5F8089017
:1042E0006868401C6860A868471E07F101080AE07A
:1042F00047465A4639462046FFF775FF80460AF181
:1043000001000FFA80FAA8F10100B84205D1414638
:10431000204600F010F8B042EAD0BAF1010001D511
:10432000002001E0AAF1010028705946206804F03D
:104330009DF80020B1E710B50246148992F83C00C0
:10434000012804D002280CD003281AD111E001EB77
:104350004100830A506A984201D8002010BDE0183D
:10436000FCE70B0A506A984201D80020F6E7E018F3
:10437000F4E7CB09506A984201D80020EEE7E01834
:10438000ECE70020EAE7014691F83C00012804D060
:10439000022805D0032809D105E040F6FF707047D8
:1043A0004FF6FF70FBE76FF07040F8E70020F6E78C
:1043B000024692F83C00012804D0022809D00328C4
:1043C00016D10DE040F6F870814201D2002070470E
:1043D0000EE04FF6F870814201D20020F7E707E0C7
:1043E00021F07040044B984201D20020EFE700BF5B
:1043F00000BF0120EBE70000F8FFFF0F2DE9F05FA1
:1044000004460D46164629462046FFF794FF82468D
:104410002089AAEB0000616A814202D9BAF1000F3B
:1044200001D1BDE8F09F02225146206803F0E2FF6F
:10443000074694F83C00012804D0022862D00328E3
:1044400072D168E005EB4500C0F34809A9F580701A
:10445000FF3831D115F0010F02D107F8096009E0EA
:1044600017F8090000F00F00F02101EA06110844D6
:1044700007F8090029462046FFF75DFF00F1010B10
:1044800002225946206803F0B5FF804615F0010F5F
:1044900009D198F8000000F0F000C6F303210844A9
:1044A00088F8000003E0C6F3071088F800004146D2
:1044B000206803F0DBFF20E015F0010F0ED107F8B4
:1044C000096009F10100385C00F0F000C6F3032137
:1044D0000844C1B209F1010039540EE017F809008F
:1044E00000F00F00F02101EA0611084407F8090066
:1044F000C6F3071009F1010178543946206803F02A
:10450000B5FF11E005F0FF0927F81960394620686A
:1045100003F0ACFF08E005F07F0947F82960394651
:10452000206803F0A3FF00BF00BF7AE72DE9F04742
:1045300004460D4616461F4694F83C00012804D058
:1045400002285ED0032866D160E005EB4500C0F389
:104550004808A8F58070FF3831D115F0010F02D15D
:1045600007F8086009E017F8080000F00F00F021D4
:1045700001EA0611084407F8080029462046FFF71B
:10458000DAFE00F1010A02225146206803F032FFF0
:10459000814615F0010F09D199F8000000F0F000F4
:1045A000C6F30321084489F8000003E0C6F30710AE
:1045B00089F800004946206803F058FF20E015F014
:1045C000010F0ED107F8086008F10100385C00F017
:1045D000F000C6F303210844C1B208F101003954C8
:1045E0000EE017F8080000F00F00F02101EA0611B4
:1045F000084407F80800C6F3071108F10100395410
:1046000009E005F0FF0827F8186004E005F07F08CE
:1046100047F8286000BF00BFBDE8F08710B504462A
:1046200000F035FD98B1002060820121204600F0A5
:10463000A3FA28B1E06CE061608A20830020E08268
:1046400004F120022146A06AFEF7D6FD0AE001210E
:10465000204600F091FA28B104F12001E26CA06A32
:10466000FEF79BFD5021204603F03AF90022114647
:10467000204600F035FB00220121204600F030FBEF
:10468000002010BD2DE9F0418EB004460D461646BF
:104690001F4601A93046FEF744FD612F7ED0722FE0
:1046A00002D0772F7BD122E000230CAA3146284686
:1046B00000F0F1FB012817D10CAA21462846FEF78D
:1046C00054FD0CAA2946204600F05DFA0122002183
:1046D000204600F005FB00220121204600F000FBEF
:1046E00000200EB0BDE8F0814FF0FF30F9E76B46D7
:1046F0000CAA3146284600F0CEFB012815D10CAAA1
:1047000021462846FEF731FD0CAA2946204600F036
:104710003AFA01220021204600F0E2FA0122114675
:10472000204600F0DDFA0020DBE7009810B96FF0BA
:104730000300D6E700230CAA3146284600F02AFCE5
:10474000002844D001AA04A92846FEF790FB0CAA31
:1047500004A92846FEF7A6FB2022214604A803F060
:10476000C8F80CAA2946204600F00DFAA06A00F00D
:104770008BFC80464146A06A00F073FC0090A06A62
:1047800004F12001009AFEF71DFD2046009900F07B
:1047900029FD04F12C012846009A01E01AE0ABE063
:1047A00000F077FC2846FFF7EEFD804602462846DB
:1047B0000099FFF723FE01220021204600F090FA25
:1047C00001221146204600F08BFA002089E76FF0A5
:1047D000020086E700230CAA3146284600F05BFB66
:1047E00001283BD10CAA21462846FEF7BEFC0CAAA4
:1047F0002946204600F0C7F9A06B00BBA06A00F074
:1048000043FC80464146A06A00F02BFC0090A06A61
:1048100004F12001009AFEF7D5FC2046009900F033
:10482000E1FC2846FFF7AFFD804602462846009986
:10483000FFF7E4FD0CAA2946204600F0A4F9204623
:10484000E16C00F05FFA01220021204600F048FAF6
:1048500001221146204600F043FA4BE000230CAA47
:104860003146284600F096FB002840D001AA04A952
:104870002846FEF7FCFA0CAA04A92846FEF712FB0C
:104880002022214604A803F034F80CAA2946204629
:1048900000F079F9A06A00F0F7FB80464146A06A73
:1048A00000F0DFFB0090A06A04F12001009AFEF7FF
:1048B00089FC2046009900F095FC04F12C01284663
:1048C000009A00F0E6FB2846FFF75DFD80460246B1
:1048D00028460099FFF792FD01220021204600F0B2
:1048E000FFF901221146204600F0FAF902E06FF0CC
:1048F0000200F6E60020F4E66FF00300F1E62DE991
:10490000F04F87B004460D4616461F464FF000088C
:10491000B146AA460021204600F02EF918B9002021
:1049200007B0BDE8F08FE06CA84201D84FF0000955
:10493000A819E16C884205D9B9F1000F02D0E06CEA
:10494000A0EB050963E0A06A80794002BAFBF0F0B1
:1049500006904FEA5A21A06A8079B1FBF0F200FB81
:1049600012100590CAF308000490049810B9B9F524
:10497000007F0DD2CAF30800C0F50070484501D38E
:10498000484603E0CAF30800C0F50070029002E058
:104990004FF400700290A06A04F12C01069AFFF710
:1049A000DBFA08B10020BBE7606B0390A06A0399B3
:1049B00000F00FFA83460298B0F5007F09D107EBAB
:1049C0000802059B0BEB0301A36A186803F0CDFCFA
:1049D00016E0059A0BEB0201A26A1068012203F0AF
:1049E00009FD019007EB0801CAF30803019A981822
:1049F000029A02F07EFFA16A0868019903F036FD71
:104A000002988244029880440298A9EB0009B9F107
:104A1000000F98D1404683E72DE9FF4F87B0044649
:104A20000D461E46DDF824904FF0000A0395002144
:104A3000204600F0A1F820B10121204600F09CF8AA
:104A400018B900200BB0BDE8F08FE06CA84200D28E
:104A5000E56C29462046099A00F00BF90690069865
:104A600040B1A06A04F12C01069AFFF7A3FA08B13D
:104A70000020E7E771E0A06A807941020398B0FB6B
:104A8000F1F005900398410AA06A8079B1FBF0F239
:104A900000FB12170398C0F30808B8F1000F02D109
:104AA000B9F5007F10D20398C0F30800C0F500707C
:104AB000484501D3484604E00398C0F30800C0F518
:104AC000007080B2029002E04FF400700290A06A81
:104AD00004F12C01059AFFF73FFA50B1E06C504405
:104AE000E06404F12001E26CA06AFEF756FB504638
:104AF000A8E7606B0490A06A049900F06AF9834605
:104B00000298B0F5007F08D106EB0A020BEB070113
:104B1000A36A186803F03BFC16E00BEB0701A26ADE
:104B20001068022203F066FC0190039AC2F30803A6
:104B3000019A991806EB0A00029A02F0DAFEA16ABD
:104B40000868019903F092FCDDE902100844039023
:104B5000029882440298A9EB0009B9F1000F8AD1AA
:104B6000E06C401B504505D2E06C411BAAEB0101F3
:104B70000844E064504665E7024692F84400012389
:104B80008B401840704710B58162C369C36400232D
:104B9000836413680362147924231C54002380F86F
:104BA0002C30438B848A03EB044484630024C46365
:104BB0000463846B446310BD70B502460B46002548
:104BC0000026002403E020201855601CC4B20B2CE2
:104BD000F9DB002410782E280AD11870701CC6B298
:104BE00050782E2802D15870921C26E0521C24E0E6
:104BF0001BE010782E2803D115B90125082413E0F5
:104C000045B10A2C10DC107800F086F81855601CAD
:104C1000C4B209E0072C07DC107800F07DF81855C5
:104C2000601CC4B2701CC6B2521C107828B1107837
:104C3000202802D010782F28DBD1002E05DD107837
:104C400008B9104670BD501CFCE70020FAE72DE9BA
:104C5000F04104460D46164633462A462046A16CCE
:104C6000FFF74DFE0746A06C3844A0643846BDE807
:104C7000F0812DE9F04704460D461646A819E16C6F
:104C8000884229D9206C38B9A16BA06AFFF72FFAA6
:104C90008046C4F8408001E0D4F84080A06A808853
:104CA000A16A897900FB01F9E06C4844401EB0FB21
:104CB000F9F0A8EB000000FB09F0E16C711A29443F
:104CC000884207D2A81908FB19004844401EB0FBCF
:104CD000F9F702E0002700E000273846BDE8F0873A
:104CE00010B53AB190F8444001238B401C4380F842
:104CF000444006E090F8443001248C40A34380F8FF
:104D0000443010BD0246D06C884202D3916400202A
:104D100070474FF0FF30FBE70146202912DB03DD2F
:104D2000302901DA2D290DD1392901DD412909DB8D
:104D30005A2903DD612901DA5F2903D17A2903DDCC
:104D40007E2901D058207047612905DB7A2903DCD0
:104D5000A1F12000C0B2F6E70846F4E72DE9F041E2
:104D600004460D46164633462A462046A16CFFF7F8
:104D700053FE0746A06C3844A0643846BDE8F08175
:104D80000146D1E90102801A70472DE9F04104463D
:104D90000D46002616E02946204600F01AF800EBE2
:104DA000060802224146206803F024FB07464FF420
:104DB0000071384602F094FD3946206803F056FB36
:104DC000701C86B2A079B042E5DC0020BDE8F0811D
:104DD000704770B5024692F83C00032805D114894B
:104DE000907A556A05FB00430AE01589947A566A61
:104DF00006FB04559089C41700EB147405EB2413CB
:104E00008C1E907904FB003070BD30B583885C1E29
:104E1000838904EB4313848893FBF4F1038A23B161
:104E2000038A43620024846103E0836943620024AF
:104E30000482C38923B1C38983620024446103E0EF
:104E4000436983620024C4810489837A456A03FB31
:104E500005430B44846AE21A8379B2FBF3F30362DD
:104E600030BD40F6F572016A914205D2012180F809
:104E70003C100022C2610DE04FF6F572016A9142CA
:104E800005D2022180F83C100022C26102E0032119
:104E900080F83C1070472DE9FF4F85B00C46154651
:104EA0001E464FF0000AD34620782F280CD10598D3
:104EB00000F0B0F80746641C06B13760207838B9B6
:104EC000022009B0BDE8F08F0598076B06B1376086
:104ED00033E0002300932B463A4602A90598FEF7DB
:104EE000A7F85FEA000809D102A94846FFF764FE67
:104EF00010B10EB1002030600020E2E70AF101009D
:104F000000F0FF0A687910F0100F09D047464C46B0
:104F100006B13760BBF1000F0FD0002030600CE00D
:104F20004FF0010B02A94846FFF746FE20B10EB133
:104F3000002030600020C4E74C4602A92046FFF75D
:104F40003BFE5FEA0009C4D1BAF1000F00D1B8E717
:104F5000687910F0100F02D1BBF1000F01D10220CF
:104F6000AFE70120ADE790F83C1003290BD102898F
:104F7000837A816903FB0122C1698B1E817903FB5E
:104F80000121C16205E00289837A018A03FB0121C4
:104F9000C1627047F0B585B004460D4616461F46FF
:104FA0000020049004AB324629462046FFF773FFE9
:104FB00010B1002005B0F0BD01A92846FEF7B1F8F8
:104FC00008B90020F6E701230093334601A92046E3
:104FD000049AFEF72DF808B10120EBE7204604996A
:104FE000FDF70EFF08B10020E4E7012300933346EC
:104FF00001A92046049AFEF71BF808B10120D9E761
:105000000020D7E710B504460021A26A206803F00B
:10501000D0F910BD014691F83C00032801D1C869C0
:1050200070470120FCE770B504460D46A86818B922
:10503000E868A86000206860286980B909E02978DC
:105040006868084468602978A8680844A860002057
:10505000287029462046FFF716F90028EFD0286966
:1050600070BD70B504460E4609E000223146204668
:10507000FFF759F805460DB9304670BD761C206A19
:10508000B042F2D80020F8E7014602207047002025
:105090007047CA608A6000234B600B610B704B61E4
:1050A000704700B502461046FFF7B4FF106300BD1D
:1050B00070B504460D46284600F01EF810B94FF0B2
:1050C000FF3070BD25602946204600F02EF82046AE
:1050D00000F092F810B96FF00100F2E72046FFF7F8
:1050E00094FE2046FFF7BDFE2046FFF73CFF20461A
:1050F000FFF7D7FF0020E4E770B504460522002142
:10510000204603F077F905464FF4FF712846FEF775
:10511000E9FEA0F52A41553901D0002070BD29468D
:10512000204603F0A3F90120F8E770B504460D46C8
:1051300005220021284603F05DF906460B21304682
:10514000FEF7D0FEA080717BA1710E213046FEF7E4
:10515000C9FE2081317CA17211213046FEF7C2FECA
:10516000A08113213046FEF7BDFEE08116213046B6
:10517000FEF7B8FE208220213046FEF7BBFE6061BC
:1051800024213046FEF7B6FEA0612C213046FEF702
:10519000B1FEE0613146284603F068F970BD0000B9
:1051A00070B506460C4606B114B96FF00D0070BD1F
:1051B0000B4D11E020466968FBF730F858B9A86834
:1051C0003060E8687060E868B0600020F060287CBB
:1051D00030740020EBE72D68002DEBD1A81FE6E727
:1051E000385101080A0C82824183704710B5044689
:1051F0002046FFF707FF10BD014601208A88B2F55F
:10520000007F00D000208A79012A00D100E000222E
:105210008B79022B01D1012300E000231A438B7903
:10522000042B01D1012300E000231A438B79082BC2
:1052300001D1012300E000231A438B79102B01D107
:10524000012300E000231A438B79202B01D1012395
:1052500000E000231A438B79402B01D1012300E0A9
:1052600000231A4300D100200A8902B900200A8ACB
:105270006AB10A68126808320B6893F9043002EBCD
:105280000312D3680A8A93420ED200200CE00A6807
:10529000126808320B6893F9043002EB0312D368EA
:1052A0008A69934200D2002070470146012070476E
:1052B0002DE9F04104460D4690462746287A40F0F5
:1052C000080028724FF41670C5F88C00C5F89000DD
:1052D0000220C5F8940000BF387E012801D000BF2D
:1052E00000BF00BF0121284607F0EBFE00F029FBBC
:1052F00006461EB94FF0FF30BDE8F081F56131463A
:10530000284605F087F90949284607F031FD084984
:10531000284605F0AFFE04220649284606F068FE3E
:105320000549284607F0C4FE0020E5E7B15700080C
:10533000015400085D5700081B59000870B5064667
:105340000C46606928B92146304600F051F800202B
:1053500070BD6069FFF714FD0546002D05DC214690
:10536000304600F045F80020F2E700BF00BF00BF64
:1053700000BF0120ECE770B504460D460022294627
:10538000204600F001F870BD2DE9F04104460D46BD
:1053900017460021204605F03DF90021204607F080
:1053A000E7FC0021204605F065FE0022114620465C
:1053B00006F01EFE0021204607F07AFE15B12846B1
:1053C00000F0DBFA2FB1204605F08AF80020BDE896
:1053D000F081204605F05AFB064626B10422034917
:1053E000204606F005FE3046F1E700005D57000854
:1053F00070B504460D4629462046FFF7BCFF70BD38
:1054000070B504460E4625462C0002D0284600F012
:10541000B4FA70BD2DE9F74382B004461546002664
:10542000B146039800782F2826D10398407818BBFE
:10543000722329A22B492C48FFF724F918B1002028
:1054400005B0BDE8F0834FF000082748C06C6060ED
:105450006068A0600020E060207C207423A003909E
:10546000B8F1000F00D12646002E2CD103A920460A
:1054700000F042F8064626E03F210398FAF7BDFE09
:10548000074617B1002038707F1C72231549164853
:10549000039AFFF7F7F808B10020D1E74FF00008B2
:1054A000002020601048C06C60606068A060002030
:1054B000E060B8F1000F01D1264604E003A92046C0
:1054C00000F01AF80646002300932A46314620468B
:1054D000039B00F043F8B3E7696E6465782E747837
:1054E00074000000B8D500202CD600202F696E640F
:1054F00065782E68746D6C0070B505460C460EA07C
:10550000206028462168FFF74BFE064696B10DA0A5
:10551000206028462168FFF743FE064656B10CA0DE
:10552000206028462168FFF73BFE064616B10020A2
:10553000206070BD2846FCE72F3430342E68746D2F
:105540006C0000002F3430342E68746D00000000B1
:105550002F3430342E7368746D6C00002DE9F047E1
:1055600004460D4616469946089F002D2ED06561CB
:105570002868A06100BF6868002801DA00BF00BF8A
:1055800000BF68686062002084F8280000BF60697E
:10559000007C08B900BF00BF00BF6069007CD8B1C3
:1055A000D6B10FA1626AA06904F023FF8046B8F16A
:1055B000000F0AD008F10401A269881AA169014408
:1055C000A161616A091A616200BF05E000206061A3
:1055D000A061606284F828000020BDE8F087000028
:1055E0000D0A0D0A000000002DE9F04F85B00446B9
:1055F0000D46049400BF049808B900BF00BF00BF67
:1056000000BF0DB900BF00BF00BF686908B9A86935
:1056100020B16FF0070005B0BDE8F08F286A10B91F
:105620000498286203E0286A049903F068F8049853
:1056300003F0D3FA286A0068A0B1286A008940F212
:10564000FF31884202DA286A008901E040F2FF3027
:105650001FFA80F8002342463949286A03F0FBF814
:10566000374E05E0049846680498B0F80A8000BFF9
:10567000B8F1070F52DB424632A1304604F0B9FEC2
:105680000746002F4AD00020029004222EA1304667
:10569000FAF7E8FD10B9F01C019004E00020307129
:1056A0006FF00D00B7E70198401C801BA8EB0000CD
:1056B0001FFA80F94A4626A10198401C04F099FE81
:1056C0000090009840B94A461EA10198401C04F081
:1056D00090FE009001200290DDE90010401C081AA5
:1056E0001FFA80FA0098C0B1DDE90001884214D9A0
:1056F000424618A1304604F07CFE68B1019800F1E2
:10570000010B0020019908700BF80A005946284641
:10571000029AFFF77FFE7EE700BF00BF286A03F012
:105720001FF80390286A0089B0F5806F05DA0398A6
:10573000052802DC6FF004006DE76FF00D006AE7EA
:1057400044CF00200D0A000047455420000000000F
:10575000200000000D0A0D0A000000002DE9F041B4
:1057600004460D462646340007D100212846FFF79F
:1057700002FE07460020BDE8F08116F8280F401C05
:10578000307016F82809042805D131462846FFF75D
:10579000F2FD0020EFE74EB1706938B1314628467E
:1057A00000F062F810B1284606F058F90020E2E750
:1057B0002DE9F04704460D4616461F46A0461FB980
:1057C00016B1B8F1000F0ED136B13189284607F075
:1057D000EFFA304603F08CF841462846FFF7CBFD40
:1057E0000020BDE8F0873189284607F0E1FAD8F8B3
:1057F0001400002833D12A4641463046FFF7F4FE14
:10580000814600BFB9F1000F08D019F1050005D09D
:10581000093003D0801F01D000BF00BF00BF19F1C5
:10582000050009D0D8F8200030B1D8F8200003F0E6
:105830005FF80020C8F82000304603F059F8B9F1AD
:10584000000F04D14146284600F00EF806E019F199
:105850000E0003D141462846FFF78DFD02E0304699
:1058600003F046F80020BCE770B504460D4600265C
:105870000DB9002070BD686A30B929462046FFF78F
:105880005DFD08B90020F5E72946204600F010F834
:105890000646686A50B96869FFF772FA002805DCA5
:1058A00029462046FFF7A4FD0020E3E73046E1E764
:1058B000F8B504460E4600274FF6FF71706A88421D
:1058C00001D2706A01E04FF6FF7080B20090B069BB
:1058D00058B1706948B170690068726952681044C3
:1058E000726A801AB269904201D0012000E0002063
:1058F000C3B26A462046B16900F050F8054655B972
:105900000127BDF80010B0690844B061BDF800106F
:10591000706A401A70623846F8BD2DE9F0410446BD
:105920000E46174625462C0002D10020BDE8F08126
:10593000002085F8280029463046FFF795FF002013
:10594000F4E710B52C2002F067F8044614B12046A5
:1059500000F01DF8204610BD10B50446606920B166
:105960006069FFF735FA00206061206A20B1206A83
:1059700002F0BEFF0020206210BD10B504462CB11D
:105980002046FFF7E9FF204601F0C0FF10BD10B52B
:1059900004462C212046FAF70EFC10BD2DE9F05FDD
:1059A00004460D4616461F4600BF0EB900BF00BF95
:1059B00000BFB6F80090B9F1000F02D10020BDE899
:1059C000F09FB4F866A050464FEAEA710AEBD15155
:1059D0004912BAEB412107D04FEAEA710AEBD151E3
:1059E000491249064FEA114A504602F015F880461E
:1059F000B8F1000F02D14FF0FF30E0E742465146C8
:105A00002248FFF724F91FFA80F945460127CA45C5
:105A100000DAD146A07F10F0080F02D0E08E0C38DB
:105A200000E0E08E40044FEA104AD14500DDD14647
:105A300000BF3B464A462946204607F0B9FD83464B
:105A40001BF101000ED1B4F8660018B1B4F868007B
:105A50000C2802DB4FF0010904E0484609EBD9713C
:105A60004FEA61091BF1010002D1B9F1010FE0DC3D
:105A7000404601F04BFFBBF1000F02D1A6F80090A9
:105A800001E000203080584699E700002CD6002025
:105A900010B5024800F004F810BD000094E60008BC
:105AA00070B5064605F092FF054600BF0DB900BF70
:105AB00000BF00BF0121284607F003FB50220E491A
:105AC000284604F0A9FD044600BF0CB100BF00BF8A
:105AD00000BFFF21284605F00BFF054600BF0DB9AA
